:020000040800F2
:10000000002800208D0F0008D10F0008D10F000834
:10001000D10F0008D10F0008D10F00080000000028
:10002000000000000000000000000000D10F0008E8
:10003000D10F000800000000D10F0008D10F000808
:10004000D10F0008D10F0008D10F0008D10F000810
:10005000D10F0008D10F0008D10F0008D10F000800
:10006000D10F0008D10F0008D10F00085D0600086D
:10007000D10F0008D10F0008D10F0008D10F0008E0
:10008000D10F0008D10F0008D10F0008D10F0008D0
:10009000D10F0008D10F0008D10F0008D10F0008C0
:1000A000D10F0008D10F0008D10F0008D10F0008B0
:1000B000D10F0008D10F0008D10F0008D10F0008A0
:1000C000D10F0008D10F0008D10F0008D10F000890
:1000D000D10F0008D10F0008D10F0008D10F000880
:1000E000D10F0008D10F0008D10F00080000000058
:1000F0000000000000000000000000000000000000
:0C01000000000000000000005FF808F1A3
:100110002DE9F84F00237C4E1946324634467B4D7C
:1001200035F813000333B3F5407F1080518002F19E
:100130000402F5D100254FF480620021744801F0DB
:1001400073FD744A4FF40071A2F5006000F042FFA5
:100150002846B4F800287049520092B2FF2D8CBF97
:100160000023338831F9027B9CBF9B1A1BB27B436F
:100170000135B5F5007F4FEAE333708003F30F03D9
:1001800006F1040626F8043CE8D15F4A4FF4806388
:100190001046082101F09EFC5B4901F6040001F0C5
:1001A000E1FA5E492A46A1F6140001F0B9FB5C4A67
:1001B0004FF48071A2F5806000F00CFF57490022D7
:1001C0000846B4F8145CFF2A8CBF00230B8802F1A8
:1001D00001029CBF5B1B1BB2B2F5007F21F8023B02
:1001E000F1D100254FF467722946C4F814584560D0
:1001F0004C4801F019FD4C4B4FF480711A1DA3F2CD
:10020000044000F011FFB4F9143CAB42C2BFB4F992
:100210001C5C95FBF3F52DB2A4F81E5CB4F81E3CF3
:100220001BB2092B04DDB4F91C3CB3F5967F03DA4D
:100230000023C4F8203C5EE0D4F8185C002DF7D011
:1002400040F2FF139D42F3D004EB4503B3F91208CB
:10025000002852DD00F0AAFB074604EB4503B3F982
:10026000140800284BDD00F0A1FB804604EB450399
:10027000B3F91608002845DD00F098FB064638461D
:1002800001F0DAFC8146304601F0D6FC8346384660
:1002900001F0D2FC0746404601F0CEFC80463046D5
:1002A00001F0CAFC59468246484600F0C9FA4FF0B0
:1002B0007C5100F0CFFB41460646404600F0C2FAB2
:1002C0000146384600F0BCFA514600F0BBFA014640
:1002D000304600F073FC0646284600F063FB0146FA
:1002E000304600F0AFFA114900F0B4FB104900F0BD
:1002F000B1FBC4F8200CBDE8F88F0E4FADE7DFF876
:100300003480B3E70B4EBAE714020020400E002001
:1003100014060020140A002000000020280A0020F3
:10032000280E00208C0A00202C0E00201B2FDD3D03
:10033000000070426F12833A204B1A6842F48032F8
:100340001A601A689103FCD51D4A116841F010012A
:100350001160116821F007011160116841F004017A
:1003600011605A686FF30D125A605A685A605A68E1
:1003700042F480625A605A685A605A6822F47C12C9
:100380005A605A6842F480325A605A6842F4E01265
:100390005A601A6842F080721A601A689201FCD59D
:1003A0005A6822F003025A605A6842F002025A6008
:1003B0005A6802F00C02082AFAD170470010024075
:1003C000002002403C4A936943F4805343F00D03FC
:1003D00093613A4B1A6822F040721A601A6842F030
:1003E00000621A601A6822F080621A60DA6822F0ED
:1003F0004002DA60324A516821F0E0615160516890
:1004000041F000715160196821F470411960196858
:1004100041F440511960196841F4004119601968AC
:1004200021F480411960196821F47001196019687C
:1004300041F440111960196841F40001196019680C
:1004400021F480011960196821F47021196019687C
:1004500041F480211960536843F0010353604FF465
:100460000042184B1A615A6822F070425A605A686A
:1004700042F040525A60002203F520531A601A6875
:1004800022F400621A601A6842F004021A601A68C4
:1004900042F440721A601A6822F003021A601A6865
:1004A00022F038021A601A6842F028021A601A68AC
:1004B00042F040021A60704700100240000C0140F8
:1004C00000000140000801404FF0004313B5CDE9A2
:1004D00000101149114A0B610223D36093689B07F6
:1004E000FCD500236846D3600C4A9468A407FCD569
:1004F00010F8014B0133082BD460F6D193689807AC
:10050000FCD5064B9A681206FCD4DA689B684FF457
:1005100000430B6102B010BD0008014000300140F3
:100520004FF00042014B1A61704700BF00080140C4
:100530004FF40042014B1A61704700BF00080140B0
:10054000134B9A6942F004029A619A6942F01002D0
:100550009A61A3F584331A68C2F313021A601A6809
:1005600042F0885242F480121A60DA6822F02002C7
:10057000DA60DA6822F04002DA60DA6842F080027B
:10058000DA60044A536823F470035360704700BF75
:100590000010024000100140184A13785B00DBB2E3
:1005A000042B137010D0082B1DD0022B19D1144B23
:1005B000D96821F08001D960D96841F04001D96043
:1005C000D96821F020010BE00D4BD96821F08001A2
:1005D000D960D96821F04001D960D96841F0200183
:1005E000D9601078704701231370054BD96841F02A
:1005F0008001D960D96821F04001E0E70C020020B9
:1006000000080140094AD36943F00103D3614FF068
:1006100080431A6822F001021A6048F69F429A62EB
:100620001A6842F008021A60704700BF00100240CA
:100630004FF0804300220138D8625A621A6922F0D2
:1006400001021A611A6842F001021A601A69D2079F
:10065000FCD51A6922F001021A61704738B50E4BB9
:100660001B689B070FD50D4D0D4C2B68A3420BD873
:100670000C4A12881A80FFF78FFF2C68023402227E
:10068000054B2C605A6038BD00F09EF80122064BE5
:10069000A4F2FE541A70F2E700000240100200209B
:1006A0003E1400203C0E00203E0E0020102313B507
:1006B0003F4C002084F80B333E4B9A6942F0040211
:1006C0009A619A6942F400729A615A6942F0010291
:1006D0005A61DA6942F00202DA61A3F584331A68DA
:1006E00022F00C021A601A6822F003021A6003F565
:1006F000E0539A6822F002029A605A6822F48072EB
:100700005A609A6822F480029A609A6822F4602201
:100710009A609A6842F400229A609A6842F48012C1
:100720009A609A6842F480729A60234AD862586349
:100730009060516841F00E015160916841F4A461EC
:1007400041F0020191600121D1601C4911611C49F5
:1007500051614FF4006248F69F412260194A91624C
:100760000B21D162516821F070015160516841F054
:10077000200151609A6842F001029A600190019A4A
:10078000B2F57A7F10DB9A6842F001029A600A4A59
:10079000936843F001039360A2F5FE32136843F0BF
:1007A0000103136002B010BD019A01320192E6E725
:1007B00000E100E000100240000002404C24014033
:1007C0003C0E002000040040084A136823F0010397
:1007D000136002F59032936823F00103936002F5F1
:1007E0005C42936823F0010393607047000400406B
:1007F0000F4B82B09A6842F001029A600022019287
:10080000019AB2F57A7F10DB9A6842F001029A6091
:10081000084A936843F001039360A2F5FE3213681F
:1008200043F00103136002B07047019A0132E6E71A
:10083000002401400000024080F0004002E000BFC0
:1008400081F0004142001FBF5FEA410392EA030FBB
:100850007FEA226C7FEA236C6AD04FEA1262D2EB05
:100860001363C1BFD218414048404140B8BF5B420A
:10087000192B88BF704710F0004F40F4000020F0A3
:100880007F4018BF404211F0004F41F4000121F0B9
:100890007F4118BF494292EA030F3FD0A2F1010203
:1008A00041FA03FC10EB0C00C3F1200301FA03F141
:1008B00000F0004302D5494260EB4000B0F5000F64
:1008C00013D3B0F1807F06D340084FEA310102F123
:1008D0000102FE2A51D2B1F1004F40EBC25008BFD5
:1008E00020F0010040EA03007047490040EB00009F
:1008F000013A28BFB0F5000FEDD2B0FA80FCACF1A0
:10090000080CB2EB0C0200FA0CF0AABF00EBC250CC
:1009100052421843BCBFD0401843704792F0000FBA
:1009200081F4000106BF80F400000132013BB5E70D
:100930004FEA41037FEA226C18BF7FEA236C21D083
:1009400092EA030F04D092F0000F08BF08467047E8
:1009500090EA010F1CBF0020704712F07F4F04D1B6
:10096000400028BF40F00040704712F100723CBFC9
:1009700000F50000704700F0004343F0FE4040F4F3
:10098000000070477FEA226216BF08467FEA2363B1
:100990000146420206BF5FEA412390EA010F40F49C
:1009A000800070474FF0000304E000BF10F00043E8
:1009B00048BF40425FEA000C08BF704743F09643CF
:1009C00001464FF000001CE050EA010208BF7047EA
:1009D0004FF000030AE000BF50EA010208BF704771
:1009E00011F0004302D5404261EB41015FEA010C86
:1009F00002BF84460146002043F0B64308BFA3F17E
:100A00008053A3F50003BCFA8CF2083AA3EBC2535F
:100A100010DB01FA02FC634400FA02FCC2F120027E
:100A2000BCF1004F20FA02F243EB020008BF20F0B5
:100A30000100704702F1200201FA02FCC2F120021B
:100A400050EA4C0021FA02F243EB020008BF20EA10
:100A5000DC7070474FF0FF0C1CEAD0521EBF1CEA3E
:100A6000D15392EA0C0F93EA0C0F6FD01A4480EA2C
:100A7000010C400218BF5FEA41211ED04FF0006315
:100A800043EA501043EA5111A0FB01310CF0004041
:100A9000B1F5000F3EBF490041EAD3715B0040EA67
:100AA000010062F17F02FD2A1DD8B3F1004F40EB37
:100AB000C25008BF20F00100704790F0000F0CF00A
:100AC000004C08BF49024CEA502040EA51207F3ACE
:100AD000C2BFD2F1FF0340EAC250704740F40000A9
:100AE0004FF00003013A5DDC12F1190FDCBF00F09A
:100AF00000407047C2F10002410021FA02F1C2F148
:100B0000200200FA02FC5FEA310040F1000053EAE3
:100B10004C0308BF20EADC70704792F0000F00F031
:100B2000004C02BF400010F4000F013AF9D040EA37
:100B30000C0093F0000F01F0004C02BF490011F4CB
:100B4000000F013BF9D041EA0C018FE70CEAD153C9
:100B500092EA0C0F18BF93EA0C0F0AD030F0004C49
:100B600018BF31F0004CD8D180EA010000F00040FD
:100B7000704790F0000F17BF90F0004F084691F0BB
:100B8000000F91F0004F14D092EA0C0F01D14202F5
:100B90000FD193EA0C0F03D14B0218BF084608D1BE
:100BA00080EA010000F0004040F0FE4040F4000008
:100BB000704740F0FE4040F4400070474FF0FF0C9B
:100BC0001CEAD0521EBF1CEAD15392EA0C0F93EAE2
:100BD0000C0F69D0A2EB030280EA010C49024FEA34
:100BE000402037D04FF0805343EA111143EA1013ED
:100BF0000CF000408B4238BF5B0042F17D024FF4A5
:100C0000000C8B4224BF5B1A40EA0C00B3EB510F7F
:100C100024BFA3EB510340EA5C00B3EB910F24BF68
:100C2000A3EB910340EA9C00B3EBD10F24BFA3EBED
:100C3000D10340EADC001B0118BF5FEA1C1CE0D1B5
:100C4000FD2A3FF650AF8B4240EBC25008BF20F068
:100C5000010070470CF0004C4CEA50207F32C2BFBC
:100C6000D2F1FF0340EAC250704740F400004FF059
:100C70000003013A37E792F0000F00F0004C02BF8A
:100C8000400010F4000F013AF9D040EA0C0093F054
:100C9000000F01F0004C02BF490011F4000F013BAE
:100CA000F9D041EA0C0195E70CEAD15392EA0C0F16
:100CB00008D142027FF47DAF93EA0C0F7FF470AF4E
:100CC000084676E793EA0C0F04D14B023FF44CAF91
:100CD00008466EE730F0004C18BF31F0004CCAD126
:100CE00030F000427FF45CAF31F000437FF43CAF62
:100CF0005FE700BF4FEA4002B2F1FE4F0FD34FF063
:100D00009E03B3EB12620DD94FEA002343F0004378
:100D100010F0004F23FA02F018BF404270474FF026
:100D20000000704712F1610F01D1420205D110F0AD
:100D3000004008BF6FF0004070474FF00000704760
:100D400042000ED2B2F1FE4F0BD34FF09E03B3EB35
:100D5000126209D44FEA002343F0004323FA02F061
:100D600070474FF00000704712F1610F01D142024D
:100D700002D14FF0FF3070474FF00000704700BFC6
:100D80004FF0FF3C06E000BF4FF0010C02E000BF57
:100D90004FF0010C4DF804CD4FEA40024FEA4103F9
:100DA0007FEA226C18BF7FEA236C11D001B052EAAF
:100DB000530C18BF90EA010F58BFB2EB030088BF75
:100DC000C81738BF6FEAE17018BF40F001007047E4
:100DD0007FEA226C02D15FEA402C05D17FEA236CC6
:100DE000E4D15FEA412CE1D05DF8040B704700BF0D
:100DF000844608466146FFE70FB5FFF7C9FF0028A4
:100E000048BF10F1000F0FBD4DF808EDFFF7F4FFDC
:100E10000CBF012000205DF808FB00BF4DF808ED75
:100E2000FFF7EAFF34BF012000205DF808FB00BF98
:100E30004DF808EDFFF7E0FF94BF012000205DF8BA
:100E400008FB00BF4DF808EDFFF7D2FF94BF01206B
:100E500000205DF808FB00BF4DF808EDFFF7C8FF64
:100E600034BF012000205DF808FB00BF4FEA4002BC
:100E70004FEA41037FEA226C02D15FEA402C08D19D
:100E80007FEA236C02D15FEA412C02D14FF00000CF
:100E900070474FF0010070470348044B834202D073
:100EA000034B03B1184770471402002014020020BE
:100EB000000000000548064B1B1AD90F01EBA301E7
:100EC000491002D0034B03B11847704714020020A9
:100ED000140200200000000010B5064C237843B92E
:100EE000FFF7DAFF044B13B10448AFF3008001238E
:100EF000237010BD4016002000000000EC1E00080A
:100F000008B5054B1BB105490548AFF30080BDE8A6
:100F10000840FFF7CFBF00BF0000000044160020CC
:100F2000EC1E000808B5FFF707FAFFF74BFAFFF7CA
:100F300069FBFFF7BBFBFFF703FB012300224FF424
:100F400000710F4800F026FC0E4E0F4D337833B180
:100F500000233370FFF7DCF8FFF74AFCF6E7322096
:100F6000FFF766FBD5F8200CB5F81E4CFFF7E8FE3E
:100F700024B22146FFF7A8FA3220FFF759FBE5E734
:100F8000180A00203E0E002014020020002103E079
:100F90000A4B5B584350043109480A4B42189A42A5
:100FA000F6D3094A02E0002342F8043B074B9A4279
:100FB000F9D300F015FEFFF7B5FF70471C57000886
:100FC0000000002014020020140200205C16002003
:100FD000FEE700005FEA910CF0B522D0654600F113
:100FE0000804002354F8087C54F8046C0FFA87FEB8
:100FF000734403EB274337B23B44013D04F108043B
:1010000003EB2643EED100EBCC0011F0030404D037
:1010100030F9025B013C2B44FAD193FBF1F31380CE
:10102000F0BD6346F1E700BF2DE9F04F01F1FF3855
:1010300083B05FEA980B019300F1020AB0F800E078
:101040005BD0D9460A304FF0040C002330F9086C0D
:101050000FFA8EFE76453746B8BF7746ACF10304EB
:101060007645D8BF1C4630F9066C3B46B742B8BF40
:10107000334630F904ECACF10205B742B4BF2E465A
:10108000264673451F46B8BF77460CF1FF357345BA
:10109000B4BF2C46344630F9023CBE469F42B8BF2E
:1010A0009E469F42ACBF23466346B9F1010900F159
:1010B00008001FFA8EFE0CF1040CC7D10AEBCB0A14
:1010C00018F003081BD0C8EB01083AF9024B0FFADD
:1010D0008EFEA6457046B8BF20467445C8BF43463D
:1010E00008F1010880B288451FFA80FEEDD110801A
:1010F000019A136003B0BDE8F08F5B46E0E77046ED
:10110000F5E700BF2DE9F04F8BB000914908044688
:10111000099007920393089100F09A8100EB810BEC
:101120004FF0000ED9467746A246D90002EB830362
:1011300001910293099B0AF1080A53F827205BF8F2
:10114000273051105810090C42F34E02000C43F3A3
:101150004E0392B2000409049BB211430343079A61
:101160000FFA81FC1CB252F80E200914C4EB0C00DB
:101170001B1400F30F0080B2CD1A05F30F0540EAEF
:101180000540061415B206FB05F8121406FB02F61C
:1011900000B202FB108200FB056664440B44120C93
:1011A000C4F34F040999C3F34F03120444EA034301
:1011B00042EA164241F827304BF827205AF8042C0F
:1011C000D9F8043051105810090C42F34E02000CAB
:1011D00043F34E0392B2000409049BB2114303434C
:1011E000029A0FFA81FC1CB252F80E2009141B144B
:1011F000C4EB0C0000F30F0080B2CD1A05F30F050D
:1012000040EA0540061415B206FB05F8121406FB69
:1012100002F600B264440B4402FB1082C4F34F0494
:10122000C3F34F0344EA03434AF8043C00FB05665A
:10123000019B120C9E44089B1204023742EA16429C
:10124000BB42C9F8042009F108093FF673AF039BBC
:101250005B009BB20693089B022B40F201819946EA
:101260005FEA590800F08780002305930393099BE8
:1012700008EB090C04934FEAC90301934FEA4903B1
:101280000293079B059A1946134651F82260069A65
:1012900013440593039A009B934264D99646049D98
:1012A00037B236142C6855F828100FFA84FB08B2B0
:1012B0002414C0EB0B03091403F30F039AB2631A4F
:1012C00003F30F0342EA03434FEA234A07FB0AF200
:1012D00006FB0AFA1BB206FB132207FB03A35844C2
:1012E0002144120CC0F34F001204C1F34F0140EA35
:1012F000014142EA1343296045F8283055F8294056
:1013000055F82C100FFA84FB08B224140914C0EB12
:101310000B0303F30F039AB2631A03F30F0342EABA
:1013200003434FEA234A07FB0AF206FB0AFA1BB201
:1013300006FB132207FB03A321445844120CC0F3FD
:101340004F00C1F34F01120442EA134340EA014146
:1013500045F8291045F82C30019B029C1D44009B48
:10136000A64473459ED8039B049A01330432434537
:101370000393049285D1069B089A5B0052089BB2A6
:10138000022A08920693C1463FF66AAF4FEA580414
:10139000099A00210846944604EB08054FEAC8075D
:1013A00002EB88064FEA480EDDF8008002EB850567
:1013B00002EB84045CF8012054F801B013B20FFA78
:1013C0008BFA03EB0A094FEA2B4B1214CAEB030307
:1013D00009F30F0903F30F031FFA89F99BB202EB1C
:1013E0000B0ACBEB02020AF30F0A02F30F0249EADF
:1013F0000A4943EA02434CF801906350725855F889
:1014000001B013B20FFA8BFA03EB0A0912144FEA78
:101410002B4BCAEB030309F30F0903F30F031FFA66
:1014200089F99BB2704402EB0B0A8045CBEB0202B8
:101430000AF30F0A02F30F0249EA0A4943EA024398
:1014400046F801906B503944B4D80BB0BDE8F08F2A
:10145000009B88469C08002B9AD10BB0BDE8F08F0A
:10146000984693E72DE9F04F8BB000914908044668
:10147000099007920393089100F06E8100EB810BB5
:101480004FF0000ED9467746A246D90002EB8303FF
:1014900001910293099B0AF1080A53F827205BF88F
:1014A000273051105810090C42F34E02000C43F340
:1014B0004E0392B2000409049BB211430343079AFE
:1014C0000FFA81FC1CB252F80E200914C4EB0C0078
:1014D0001B1400F30F0080B2CD1A05F30F0540EA8C
:1014E000054006B2151405FB06F812B206FB02F61B
:1014F000001400FB028200FB156664440B44120CCE
:10150000C4F34F040999C3F34F03120444EA03439D
:1015100042EA164241F827304BF827205AF8042CAB
:10152000D9F8043051105810090C42F34E02000C47
:1015300043F34E0392B2000409049BB211430343E8
:10154000029A0FFA81FC1CB252F80E2009141B14E7
:10155000C4EB0C0000F30F0080B2CD1A05F30F05A9
:1015600040EA054006B2151405FB06F812B206FB68
:1015700002F6001464440B4400FB0282C4F34F04DF
:10158000C3F34F0344EA03434AF8043C00FB1566E7
:10159000019B120C9E44089B1204023742EA164239
:1015A000BB42C9F8042009F108093FF673AF039B59
:1015B0005B009BB20693089B022B40F2D0809946B9
:1015C0005FEA590800F08780002305930393099B85
:1015D00008EB090C04934FEAC90301934FEA49034E
:1015E0000293079B059A1946134651F82260069A02
:1015F00013440593039A009B934264D99646049D35
:1016000037B236142C6855F828100FFA84FB08B24C
:101610002414C0EB0B03091403F30F039AB2631AEB
:1016200003F30F0342EA03430FFA83FA06FB0AF2BD
:1016300007FB0AFA1B1407FB032206FB13A35844FB
:101640002144120CC0F34F001204C1F34F0140EAD1
:10165000014142EA1343296045F8283055F82940F2
:1016600055F82C100FFA84FB08B224140914C0EBAF
:101670000B0303F30F039AB2631A03F30F0342EA57
:1016800003430FFA83FA06FB0AF207FB0AFA1B145C
:1016900007FB032206FB13A321445844120CC0F39A
:1016A0004F00C1F34F01120442EA134340EA0141E3
:1016B00045F8291045F82C30019B029C1D44009BE5
:1016C000A64473459ED8039B049A013304324345D4
:1016D0000393049285D1069B089A5B0052089BB243
:1016E000022A08920693C1463FF66AAF5FEA58079E
:1016F00032D0099CDDF800E004EB87050026B645F2
:1017000088BF314625D954F8213055F821001AB246
:101710000FFA80F902EB090C00141B14C9EB02024A
:101720000CF30F0C02F30F021FFA8CFC92B203EBC6
:1017300000091B1A09F30F0003F30F034CEA0040E2
:1017400042EA034344F8210045F8213041448E45E4
:10175000D9D80136BE42D2D10BB0BDE8F08F984641
:10176000C4E700BF70B5044683780D46012B0846D8
:1017700062682188A38909D0FFF7C4FC2846218824
:10178000E289A368BDE8704000F098B8FFF76AFEF0
:10179000F4E700BF10B43F4CB1F5807F8270C37096
:1017A000018044605CD013D9B1F5806F62D040D91C
:1017B000B1F5006F26D0B1F5805F65D1364A0123BF
:1017C00082608381C381002040B25DF8044B704782
:1017D00020293BD020D940290BD0802954D12F4A31
:1017E000202382608381C381002040B25DF8044BD6
:1017F00070472B4B8181C1818360002040B25DF82E
:10180000044B7047274A022382608381C3810020F2
:1018100040B25DF8044B7047102935D1224A4FF48D
:10182000807382608381C381002040B25DF8044BE5
:101830007047B1F5007F27D11C4A0823826083815D
:10184000C381002040B25DF8044B7047184A8023E2
:1018500082608381C381002040B25DF8044B7047F1
:10186000144A102382608381C381002040B25DF856
:10187000044B7047104A042382608381C381002097
:1018800040B25DF8044B7047FF2040B25DF8044B56
:10189000704700BF101F0008104F00084E4F00088F
:1018A0008E4F0008124F00080E5100081E4F00080E
:1018B0000E5000082E4F0008164F00082DE9F04783
:1018C000490800264FEA420A01F1010CA1F1020E7B
:1018D000054600EB8107344613E0B4420FD9D5F832
:1018E000089050F8242004EB0C08AA6040F82490DB
:1018F000D7F80C9050F82820FA6040F82890083566
:1019000008370C4450F82420D5F8048002366A6069
:10191000764540F824801C885344DED9BDE8F08722
:101920002DE9F04F930883B0009206460F460193CD
:1019300046D098468B4600F1100A5AF8100C5AF817
:101940000C5C011401FB01F15AF8084C5AF8043CF4
:101950004FEA254C0CFB0CFC4FEA244E00B20EFB68
:101960000EFE00FB0010191401FB01F12DB205FB66
:1019700005C524B204FB04E41BB203FB03194014A5
:10198000594600F035F80BF10201681400F030F808
:101990000BF106050BF10401601400F029F84FEA81
:1019A0006940294600F024F8B8F101080AF1100A4C
:1019B0000BF1080BC1D1019A06EB021607EBC20727
:1019C000009B13F0030810D056F8040B394603149B
:1019D00003FB03F300B200FB0030401400F008F8F2
:1019E000B8F1010807F10207EED103B0BDE8F08FAE
:1019F0000028F8B568DDB0FA80F6113EB6B216F0F0
:101A0000010516BF06F1FF33B040984083B21FB204
:101A100038460C46FEF7CAFF4FF06051FFF71AF840
:101A200043102B484FF08D41C01AFFF713F8FFF712
:101A300061F900B200FB00F34FEA670E43F3CF33C6
:101A40000EFB03F343F3CF33C3F5405303FB00F323
:101A500043F34F3323F0030303FB03F141F3CF318F
:101A600001FB0EF141F3CF31C1F5405101FB03F30E
:101A700043F34F3323F0030303FB03F242F3CF326C
:101A800002FB0EF242F3CF32C2F5405202FB03F3E7
:101A900043F34F3323F0030303FB07F343F3CF3345
:101AA0005B009BB255B1013E06EBD67676101BB2B9
:101AB00033419BB22380002040B2F8BD1BB246F3F5
:101AC0004E0633419BB2F5E700230B80FF20F3E77E
:101AD000DF59375F00292DE9F0414FEA930E3DDAD7
:101AE000BEF1000F2BD0F046C1F1000C00F108064A
:101AF00002F1080736F9085C36F9064C45FA0CF590
:101B0000ADB244FA0CF445EA044447F8084C36F9FF
:101B1000045C36F9024C45FA0CF5ADB244FA0CF40B
:101B200045EA0444B8F1010847F8044C06F10806F8
:101B300007F10807DED14FEACE0E7044724413F06D
:101B4000030309D04942023A30F9024B013B44FAFF
:101B500001F422F8024FF7D1BDE8F081BEF1000F89
:101B60002DD0F44600F1080602F1080736F9085CAA
:101B700036F9064C8D4005F30F05ADB28C4004F3E9
:101B80000F0445EA044447F8084C36F9045C36F97A
:101B9000024C8D4005F30F05ADB28C40BCF1010C39
:101BA00004F30F0445EA044447F8044C06F1080620
:101BB00007F10807DAD14FEACE0E7044724413F0F1
:101BC0000303C9D0023A30F9024B013B04FA01F495
:101BD00004F30F0422F8024FF5D1BDE8F08100BFF5
:101BE00070B500260C4D0D4C641BA410A64209D103
:101BF00000F07CF900260A4D0A4C641BA410A64292
:101C000005D170BD55F8043B98470136EEE755F80D
:101C1000043B98470136F2E71457000814570008B0
:101C2000145700081857000803460244934200D195
:101C3000704703F8011BF9E738B5044600F02AF8AD
:101C4000214605462046FFF711F970B920460021CC
:101C5000FFF702F948B920460021FFF7D5F830B167
:101C600000F052E92223074D0360284638BD00F0FA
:101C70004CE92122034604481A60BDE8384000F0D0
:101C800005B800BF000080FF1057000800487047EB
:101C90000000C07F2DE9F84F30F000432BD0002822
:101CA0000146034640DBB0F1FF4F39DAB0F5000FD3
:101CB00041DB0021804AC3F316052A44DC1502F4F7
:101CC00000007F3C80F07E500C4428434FF07E5152
:101CD00004EBD254FEF7B4FD784B05F10F0213402C
:101CE000064683BB0021FFF78FF8002800F0A38091
:101CF00044B9002004E000214FF04C40FEF75EFFA5
:101D0000BDE8F88F2046FEF751FE6D490546FEF707
:101D1000A1FE6C4904462846FEF79CFE014620467B
:101D2000FEF790FDBDE8F88FFEF78AFD0021FEF773
:101D300045FFBDE8F88F4FF09841FEF78BFE6FF03E
:101D400018010346B6E74FF08041FEF77BFD0146E0
:101D50003046FEF733FF80462046FEF727FE414619
:101D600081464046FEF776FE01468246FEF772FE49
:101D700007465549FEF76EFE5449FEF763FD3946A6
:101D8000FEF768FE5249FEF75DFD3946FEF762FE3A
:101D90005049FEF757FD5146FEF75CFE4E4982461C
:101DA0003846FEF757FE4D49FEF74CFD3946FEF723
:101DB00051FE4B49FEF746FD3946FEF74BFE014604
:101DC0005046FEF73FFDDFF81CB10746AB44C5F5B2
:101DD000571505F5227545EA0B05002D4CDD4FF032
:101DE0007C513046FEF736FE3146FEF733FE05469F
:101DF00038462946FEF726FD4146FEF72BFE0746EC
:101E0000002C47D02E494846FEF724FE2D490446B3
:101E10004846FEF71FFE3946FEF714FD01462846E8
:101E2000FEF70EFD3146FEF70BFD01462046FEF79C
:101E300007FDBDE8F88F2C493046FEF70BFE014642
:101E40004FF07C50FEF7FCFC314605463046FEF76D
:101E500001FE01462846FEF7FDFD0546ACB12046D1
:101E6000FEF7A4FD16490746FEF7F4FD0446384682
:101E70001449FEF7EFFDD1E701463046FEF7E0FCDE
:101E80004146FEF7E7FD05466CB929463046FEF7A8
:101E9000D7FC35E701462846FEF7D2FC014630461E
:101EA000FEF7CEFC2CE706494846FEF7D3FD054970
:101EB00004464846DDE700BF20FB4A00F0FF7F00F4
:101EC0008071313FD1F717379788173E25333A3E57
:101ED0002549923EABAA2A3F4FD01C3E298E633E35
:101EE000CDCCCC3E305CCFFFABAAAA3EF8B500BF4C
:101EF000F8BC08BC9E467047F8B500BFF8BC08BCEB
:101F00009E4670470000000004F01FE5380E0020D8
:101F1000FF7F0000FF7F3200FF7F6400FF7F96009D
:101F2000FF7FC900FF7FFB00FE7F2D01FE7F5F0169
:101F3000FD7F9201FC7FC401FC7FF601FB7F28023C
:101F4000FA7F5B02F97F8D02F87FBF02F77FF10213
:101F5000F67F2403F47F5603F37F8803F27FBA03EE
:101F6000F07FED03EE7F1F04ED7F5104EB7F8304D0
:101F7000E97FB604E77FE804E57F1A05E37F4C05B7
:101F8000E17F7F05DF7FB105DD7FE305DA7F1506A1
:101F9000D87F4706D67F7A06D37FAC06D07FDE0691
:101FA000CE7F1007CB7F4207C87F7507C57FA70785
:101FB000C27FD907BF7F0B08BC7F3D08B87F6F0881
:101FC000B57FA208B17FD408AE7F0609AA7F380981
:101FD000A77F6A09A37F9C099F7FCE099B7F000A88
:101FE000977F330A937F650A8F7F970A8B7FC90A91
:101FF000877FFB0A827F2D0B7E7F5F0B797F910BA2
:10200000757FC30B707FF50B6B7F270C677F590CB7
:10201000627F8B0C5D7FBD0C587FEF0C537F210DD1
:102020004D7F530D487F850D437FB70D3D7FE90DF3
:10203000387F1B0E327F4D0E2D7F7F0E277FB10E16
:10204000217FE30E1B7F150F157F470F0F7F790F41
:10205000097FAB0F037FDD0FFD7E0E10F67E401073
:10206000F07E7210E97EA410E37ED610DC7E0811AB
:10207000D57E3911CF7E6B11C87E9D11C17ECF11E7
:10208000BA7E0112B37E3212AB7E6412A47E961227
:102090009D7EC812957EF9128E7E2B13867E5D136F
:1020A0007F7E8E13777EC0136F7EF213677E2314BC
:1020B0005F7E5514577E87144F7EB814477EEA140E
:1020C0003F7E1B15377E4D152E7E7F15267EB01563
:1020D0001D7EE215147E13160C7E4516037E7616C1
:1020E000FA7DA816F17DD916E87D0A17DF7D3C1729
:1020F000D67D6D17CD7D9F17C37DD017BA7D021891
:10210000B07D3318A77D64189D7D9618947DC718FF
:102110008A7DF818807D2A19767D5B196C7D8C1973
:10212000627DBD19587DEF194E7D201A437D511AED
:10213000397D821A2F7DB31A247DE41A197D161B6E
:102140000F7D471B047D781BF97CA91BEE7CDA1BF5
:10215000E37C0B1CD87C3C1CCD7C6D1CC27C9E1C83
:10216000B77CCF1CAB7C001DA07C311D947C621D14
:10217000897C931D7D7CC41D717CF51D667C251EAC
:102180005A7C561E4E7C871E427CB81E367CE91E49
:10219000297C191F1D7C4A1F117C7B1F057CAC1FED
:1021A000F87BDC1FEB7B0D20DF7B3E20D27B6E209B
:1021B000C57B9F20B97BD020AC7B00219F7B312148
:1021C000927B6121847B9221777BC2216A7BF32100
:1021D0005D7B23224F7B5422427B8422347BB422BA
:1021E000267BE522197B15230B7B4523FD7A76237D
:1021F000EF7AA623E17AD623D37A0724C57A372447
:10220000B67A6724A87A97249A7AC7248B7AF72417
:102210007D7A28256E7A58255F7A8825507AB825E8
:10222000427AE825337A1826247A4826157A7826C1
:10223000057AA826F679D826E7790727D8793727A7
:10224000C8796727B9799727A979C7279979F62790
:102250008A7926287A7956286A7986285A79B5287B
:102260004A79E5283A7915292A794429197974296E
:102270000979A329F978D329E878022AD878322A6B
:10228000C778612AB678912AA678C02A9578EF2A6D
:1022900084781F2B73784E2B62787D2B5178AD2B71
:1022A0004078DC2B2E780B2C1D783A2C0C78692C7E
:1022B000FA77982CE977C82CD777F72CC577262D95
:1022C000B477552DA277842D9077B32D7E77E22DAC
:1022D0006C77112E5A773F2E47776E2E35779D2ECD
:1022E0002377CC2E1077FB2EFE76292FEB76582FF6
:1022F000D976872FC676B52FB376E42FA076133024
:102300008E7641307B76703068769E305476CD3054
:102310004176FB302E762A311B765831077686318E
:10232000F475B531E075E331CC751132B9754032D1
:10233000A5756E3291759C327D75CA326975F83219
:1023400055752633417554332D7582331975B03365
:102350000475DE33F0740C34DB743A34C7746834BB
:10236000B27496349E74C4348974F23474741F3514
:102370005F744D354A747B353574A8352074D63575
:102380000B740436F6733136E0735F36CB738C36DC
:10239000B573BA36A073E7368A731437757342374C
:1023A0005F736F3749739C373373CA371D73F737C1
:1023B00007732438F1725138DB727E38C572AB383E
:1023C000AF72D83898720639827232396B725F39BF
:1023D00055728C393E72B9392772E6391172133A47
:1023E000FA71403AE3716C3ACC71993AB571C63AD8
:1023F0009E71F23A86711F3B6F714C3B5871783B6E
:102400004171A53B2971D13B1271FD3BFA702A3C09
:10241000E270563CCB70833CB370AF3C9B70DB3CAE
:102420008370073D6B70333D5370603D3B708C3D56
:102430002370B83D0A70E43DF26F103EDA6F3C3E07
:10244000C16F683EA96F933E906FBF3E776FEB3EC2
:102450005F6F173F466F433F2D6F6E3F146F9A3F7C
:10246000FB6EC53FE26EF13FC96E1D40AF6E484046
:10247000966E73407D6E9F40636ECA404A6EF64012
:10248000306E2141176E4C41FD6D7741E36DA241E5
:10249000CA6DCE41B06DF941966D24427C6D4F42BC
:1024A000626D7A42486DA5422D6DD042136DFA429D
:1024B000F96C2543DE6C5043C46C7B43A96CA54387
:1024C0008F6CD043746CFB43596C25443F6C504473
:1024D000246C7A44096CA544EE6BCF44D36BFA4468
:1024E000B86B24459C6B4E45816B7845666BA34564
:1024F0004A6BCD452F6BF745136B2146F86A4B4667
:10250000DC6A7546C16A9F46A56AC946896AF34670
:102510006D6A1C47516A4647356A7047196A9A477F
:10252000FD69C347E169ED47C4691648A869404899
:102530008C6969486F6993485369BC483669E648B5
:1025400019690F49FD683849E0686149C3688A49DB
:10255000A668B4498968DD496C68064A4F682F4A05
:102560003268584A1568814AF767A94ADA67D24A39
:10257000BD67FB4A9F67244B82674C4B6467754B72
:1025800046679E4B2967C64B0B67EF4BED66174CB2
:10259000CF663F4CB166684C9366904C7566B84CFC
:1025A0005766E14C3966094D1A66314DFC65594D47
:1025B000DD65814DBF65A94DA065D14D8265F94DA1
:1025C0006365214E4565484E2665704E0765984EF9
:1025D000E864BF4EC964E74EAA640F4F8B64364F60
:1025E0006C645E4F4D64854F2D64AC4F0E64D44FC8
:1025F000EF63FB4FCF632250B0634950906370503C
:10260000716397505163BF503163E55011630C51B2
:10261000F2623351D2625A51B26281519262A85130
:102620007162CE515162F55131621C5211624252B7
:10263000F1616952D0618F52B061B5528F61DC5245
:102640006F6102534E6128532D614E530D617553D6
:10265000EC609B53CB60C153AA60E75389600D5473
:10266000686033544760585426607E540460A45414
:10267000E35FCA54C25FEF54A05F15557F5F3A55C0
:102680005E5F60553C5F85551A5FAB55F95ED0556E
:10269000D75EF555B55E1A56935E4056715E655627
:1026A000505E8A562D5EAF560B5ED456E95DF956E4
:1026B000C75D1D57A55D4257835D6757605D8C57A9
:1026C0003E5DB0571B5DD557F95CF957D65C1E5877
:1026D000B45C4258915C67586E5C8B584B5CAF5849
:1026E000295CD458065CF858E35B1C59C05B405920
:1026F0009D5B6459795B8859565BAC59335BD05903
:10270000105BF359EC5A175AC95A3B5AA55A5E5AEC
:10271000825A825A5E5AA55A3B5AC95A175AEC5ADB
:10272000F359105BD059335BAC59565B8859795BD0
:1027300064599D5B4059C05B1C59E35BF858065CCB
:10274000D458295CAF584B5C8B586E5C6758915CD1
:102750004258B45C1E58D65CF957F95CD5571B5DDE
:10276000B0573E5D8C57605D6757835D4257A55DEE
:102770001D57C75DF956E95DD4560B5EAF562D5E09
:102780008A56505E6556715E4056935E1A56B55E27
:10279000F555D75ED055F95EAB551A5F85553C5F50
:1027A00060555E5F3A557F5F1555A05FEF54C25F7D
:1027B000CA54E35FA45404607E54266058544760B2
:1027C000335468600D548960E753AA60C153CB60ED
:1027D0009B53EC6075530D614E532D6128534E6130
:1027E00002536F61DC528F61B552B0618F52D0617C
:1027F0006952F161425211621C523162F5515162CB
:10280000CE517162A85192628151B2625A51D26224
:102810003351F2620C511163E5503163BF50516383
:1028200097507163705090634950B0632250CF63EA
:10283000FB4FEF63D44F0E64AC4F2D64854F4D6456
:102840005E4F6C64364F8B640F4FAA64E74EC964C9
:10285000BF4EE864984E0765704E2665484E456544
:10286000214E6365F94D8265D14DA065A94DBF65C7
:10287000814DDD65594DFC65314D1A66094D39664E
:10288000E14C5766B84C7566904C9366684CB166DF
:102890003F4CCF66174CED66EF4B0B67C64B296775
:1028A0009E4B4667754B64674C4B8267244B9F6712
:1028B000FB4ABD67D24ADA67A94AF767814A1568B9
:1028C000584A32682F4A4F68064A6C68DD49896861
:1028D000B449A6688A49C3686149E0683849FD6817
:1028E0000F491969E6483669BC48536993486F69CE
:1028F00069488C694048A8691648C469ED47E16990
:10290000C347FD699A47196A7047356A4647516A55
:102910001C476D6AF346896AC946A56A9F46C16A23
:102920007546DC6A4B46F86A2146136BF7452F6BF8
:10293000CD454A6BA345666B7845816B4E459C6BD4
:102940002445B86BFA44D36BCF44EE6BA544096CB5
:102950007A44246C50443F6C2544596CFB43746C9E
:10296000D0438F6CA543A96C7B43C46C5043DE6C91
:102970002543F96CFA42136DD0422D6DA542486D86
:102980007A42626D4F427C6D2442966DF941B06D82
:10299000CE41CA6DA241E36D7741FD6D4C41176E8A
:1029A0002141306EF6404A6ECA40636E9F407D6E94
:1029B0007340966E4840AF6E1D40C96EF13FE26EA7
:1029C000C53FFB6E9A3F146F6E3F2D6F433F466FBE
:1029D000173F5F6FEB3E776FBF3E906F933EA96FDF
:1029E000683EC16F3C3EDA6F103EF26FE43D0A7004
:1029F000B83D23708C3D3B70603D5370333D6B7030
:102A0000073D8370DB3C9B70AF3CB370833CCB7065
:102A1000563CE2702A3CFA70FD3B1271D13B2971A1
:102A2000A53B4171783B58714C3B6F711F3B8671E0
:102A3000F23A9E71C63AB571993ACC716C3AE3712B
:102A4000403AFA71133A1172E6392772B9393E7277
:102A50008C3955725F396B723239827206399872CD
:102A6000D838AF72AB38C5727E38DB725138F1722C
:102A700024380773F7371D73CA3733739C3749738C
:102A80006F375F734237757314378A73E736A073F5
:102A9000BA36B5738C36CB735F36E0733136F67366
:102AA00004360B74D6352074A83535747B354A74DA
:102AB0004D355F741F357474F2348974C4349E7458
:102AC0009634B2746834C7743A34DB740C34F074DE
:102AD000DE330475B033197582332D755433417567
:102AE00026335575F8326975CA327D759C329175F9
:102AF0006E32A5754032B9751132CC75E331E0758F
:102B0000B531F4758631077658311B762A312E7629
:102B1000FB304176CD3054769E30687670307B76CF
:102B200041308E761330A076E42FB376B52FC6767B
:102B3000872FD976582FEB76292FFE76FB2E10772C
:102B4000CC2E23779D2E35776E2E47773F2E5A77E2
:102B5000112E6C77E22D7E77B32D9077842DA2779E
:102B6000552DB477262DC577F72CD777C82CE97764
:102B7000982CFA77692C0C783A2C1D780B2C2E782F
:102B8000DC2B4078AD2B51787D2B62784E2B7378FF
:102B90001F2B8478EF2A9578C02AA678912AB678D8
:102BA000612AC778322AD878022AE878D329F978B6
:102BB000A32909797429197944292A7915293A7997
:102BC000E5284A79B5285A7986286A7956287A7983
:102BD00026288A79F6279979C727A9799727B97975
:102BE0006727C8793727D8790727E779D826F6796C
:102BF000A826057A7826157A4826247A1826337A64
:102C0000E825427AB825507A88255F7A58256E7A69
:102C100028257D7AF7248B7AC7249A7A9724A87A74
:102C20006724B67A3724C57A0724D37AD623E17A83
:102C3000A623EF7A7623FD7A45230B7B1523197B98
:102C4000E522267BB422347B8422427B54224F7BB4
:102C500023225D7BF3216A7BC221777B9221847BD7
:102C60006121927B31219F7B0021AC7BD020B97BFD
:102C70009F20C57B6E20D27B3E20DF7B0D20EB7B2F
:102C8000DC1FF87BAC1F057C7B1F117C4A1F1D7C61
:102C9000191F297CE91E367CB81E427C871E4E7C9B
:102CA000561E5A7C251E667CF51D717CC41D7D7CDC
:102CB000931D897C621D947C311DA07C001DAB7C22
:102CC000CF1CB77C9E1CC27C6D1CCD7C3C1CD87C70
:102CD0000B1CE37CDA1BEE7CA91BF97C781B047DC2
:102CE000471B0F7D161B197DE41A247DB31A2F7D17
:102CF000821A397D511A437D201A4E7DEF19587D75
:102D0000BD19627D8C196C7D5B19767D2A19807DD9
:102D1000F8188A7DC718947D96189D7D6418A77D44
:102D20003318B07D0218BA7DD017C37D9F17CD7DB3
:102D30006D17D67D3C17DF7D0A17E87DD916F17D2A
:102D4000A816FA7D7616037E45160C7E1316147EA1
:102D5000E2151D7EB015267E7F152E7E4D15377E21
:102D60001B153F7EEA14477EB8144F7E8714577EAA
:102D700055145F7E2314677EF2136F7EC013777E37
:102D80008E137F7E5D13867E2B138E7EF912957EC9
:102D9000C8129D7E9612A47E6412AB7E3212B37E60
:102DA0000112BA7ECF11C17E9D11C87E6B11CF7EFC
:102DB0003911D57E0811DC7ED610E37EA410E97EA1
:102DC0007210F07E4010F67E0E10FD7EDD0F037F48
:102DD000AB0F097F790F0F7F470F157F150F1B7FF3
:102DE000E30E217FB10E277F7F0E2D7F4D0E327FA8
:102DF0001B0E387FE90D3D7FB70D437F850D487F62
:102E0000530D4D7F210D537FEF0C587FBD0C5D7F1F
:102E10008B0C627F590C677F270C6B7FF50B707FE3
:102E2000C30B757F910B797F5F0B7E7F2D0B827FAC
:102E3000FB0A877FC90A8B7F970A8F7F650A937F7A
:102E4000330A977F000A9B7FCE099F7F9C09A37F4F
:102E50006A09A77F3809AA7F0609AE7FD408B17F27
:102E6000A208B57F6F08B87F3D08BC7F0B08BF7F05
:102E7000D907C27FA707C57F7507C87F4207CB7FE9
:102E80001007CE7FDE06D07FAC06D37F7A06D67FD2
:102E90004706D87F1506DA7FE305DD7FB105DF7FC2
:102EA0007F05E17F4C05E37F1A05E57FE804E77FB6
:102EB000B604E97F8304EB7F5104ED7F1F04EE7FAE
:102EC000ED03F07FBA03F27F8803F37F5603F47FAC
:102ED0002403F67FF102F77FBF02F87F8D02F97FAE
:102EE0005B02FA7F2802FB7FF601FC7FC401FC7FB6
:102EF0009201FD7F5F01FE7F2D01FE7FFB00FF7FC2
:102F0000C900FF7F9600FF7F6400FF7F3200FF7FD4
:102F10000000FF7FCDFFFF7F9BFFFF7F69FFFF7FEB
:102F200036FFFF7F04FFFF7FD2FEFE7FA0FEFE7F05
:102F30006DFEFD7F3BFEFC7F09FEFC7FD7FDFB7F26
:102F4000A4FDFA7F72FDF97F40FDF87F0EFDF77F4B
:102F5000DBFCF67FA9FCF47F77FCF37F45FCF27F76
:102F600012FCF07FE0FBEE7FAEFBED7F7CFBEB7FA6
:102F700049FBE97F17FBE77FE5FAE57FB3FAE37FDB
:102F800080FAE17F4EFADF7F1CFADD7FEAF9DA7F13
:102F9000B8F9D87F85F9D67F53F9D37F21F9D07F4F
:102FA000EFF8CE7FBDF8CB7F8AF8C87F58F8C57F91
:102FB00026F8C27FF4F7BF7FC2F7BC7F90F7B87FD7
:102FC0005DF7B57F2BF7B17FF9F6AE7FC7F6AA7F25
:102FD00095F6A77F63F6A37F31F69F7FFFF59B7F72
:102FE000CCF5977F9AF5937F68F58F7F36F58B7FC9
:102FF00004F5877FD2F4827FA0F47E7F6EF4797F20
:103000003CF4757F0AF4707FD8F36B7FA6F3677F7B
:1030100074F3627F42F35D7F10F3587FDEF2537FDB
:10302000ACF24D7F7AF2487F48F2437F16F23D7F43
:10303000E4F1387FB2F1327F80F12D7F4EF1277FAE
:103040001CF1217FEAF01B7FB8F0157F86F00F7F1F
:1030500054F0097F22F0037FF1EFFD7EBFEFF67E93
:103060008DEFF07E5BEFE97E29EFE37EF7EEDC7E0D
:10307000C6EED57E94EECF7E62EEC87E30EEC17E87
:10308000FEEDBA7ECDEDB37E9BEDAB7E69EDA47E09
:1030900037ED9D7E06ED957ED4EC8E7EA2EC867E8D
:1030A00071EC7F7E3FEC777E0DEC6F7EDCEB677E14
:1030B000AAEB5F7E78EB577E47EB4F7E15EB477EA2
:1030C000E4EA3F7EB2EA377E80EA2E7E4FEA267E31
:1030D0001DEA1D7EECE9147EBAE90C7E89E9037EC7
:1030E00057E9FA7D26E9F17DF5E8E87DC3E8DF7D63
:1030F00092E8D67D60E8CD7D2FE8C37DFDE7BA7DFF
:10310000CCE7B07D9BE7A77D69E79D7D38E7947D9F
:1031100007E78A7DD5E6807DA4E6767D73E66C7D43
:1031200042E6627D10E6587DDFE54E7DAEE5437DEB
:103130007DE5397D4CE52F7D1BE5247DE9E4197D96
:10314000B8E40F7D87E4047D56E4F97C25E4EE7C49
:10315000F4E3E37CC3E3D87C92E3CD7C61E3C27CFF
:1031600030E3B77CFFE2AB7CCEE2A07C9DE2947CB6
:103170006CE2897C3BE27D7C0AE2717CDAE1667C70
:10318000A9E15A7C78E14E7C47E1427C16E1367C2D
:10319000E6E0297CB5E01D7C84E0117C53E0057CF1
:1031A00023E0F87BF2DFEB7BC1DFDF7B91DFD27BBB
:1031B00060DFC57B2FDFB97BFFDEAC7BCEDE9F7B84
:1031C0009EDE927B6DDE847B3DDE777B0CDE6A7B50
:1031D000DCDD5D7BABDD4F7B7BDD427B4BDD347B20
:1031E0001ADD267BEADC197BBADC0B7B89DCFD7AF5
:1031F00059DCEF7A29DCE17AF8DBD37AC8DBC57ACF
:1032000098DBB67A68DBA87A38DB9A7A08DB8B7AA7
:10321000D7DA7D7AA7DA6E7A77DA5F7A47DA507A88
:1032200017DA427AE7D9337AB7D9247A87D9157A67
:1032300057D9057A27D9F679F8D8E779C8D8D8794F
:1032400098D8C87968D8B97938D8A97909D8997936
:10325000D9D78A79A9D77A7979D76A794AD75A7921
:103260001AD74A79EAD63A79BBD62A798BD6197910
:103270005CD609792CD6F978FDD5E878CDD5D87803
:103280009ED5C7786ED5B6783FD5A67810D59578F7
:10329000E0D48478B1D4737882D4627852D45178EF
:1032A00023D44078F4D32E78C5D31D7896D30C78E8
:1032B00067D3FA7737D3E97708D3D777D9D2C577E9
:1032C000AAD2B4777BD2A2774CD290771DD27E77E8
:1032D000EED16C77C0D15A7791D1477762D13577EB
:1032E00033D1237704D11077D6D0FE76A7D0EB76F2
:1032F00078D0D9764AD0C6761BD0B376ECCFA076FC
:10330000BECF8E768FCF7B7661CF687632CF547604
:1033100004CF4176D5CE2E76A7CE1B7679CE077612
:103320004ACEF4751CCEE075EECDCC75BFCDB97527
:1033300091CDA57563CD917535CD7D7507CD697539
:10334000D9CC5575ABCC41757DCC2D754FCC19754D
:1033500021CC0475F3CBF074C5CBDB7497CBC77469
:1033600069CBB2743BCB9E740DCB8974E0CA747484
:10337000B2CA5F7484CA4A7457CA357429CA2074A1
:10338000FBC90B74CEC9F673A0C9E07373C9CB73C4
:1033900045C9B57318C9A073EBC88A73BDC87573E6
:1033A00090C85F7363C8497335C8337308C81D7309
:1033B000DBC70773AEC7F17281C7DB7254C7C57232
:1033C00027C7AF72F9C69872CDC68272A0C66B725B
:1033D00073C6557246C63E7219C62772ECC5117285
:1033E000BFC5FA7193C5E37166C5CC7139C5B571B6
:1033F0000DC59E71E0C48671B3C46F7187C45871E6
:103400005AC441712EC4297102C41271D5C3FA7015
:10341000A9C3E2707CC3CB7050C3B37024C39B704C
:10342000F8C28370CCC26B709FC2537073C23B7082
:1034300047C223701BC20A70EFC1F26FC3C1DA6FBB
:1034400097C1C16F6CC1A96F40C1906F14C1776FF4
:10345000E8C05F6FBCC0466F91C02D6F65C0146F30
:103460003AC0FB6E0EC0E26EE2BFC96EB7BFAF6E70
:103470008CBF966E60BF7D6E35BF636E09BF4A6EAE
:10348000DEBE306EB3BE176E88BEFD6D5DBEE36DF1
:1034900031BECA6D06BEB06DDBBD966DB0BD7C6D34
:1034A00085BD626D5ABD486D2FBD2D6D05BD136D77
:1034B000DABCF96CAFBCDE6C84BCC46C5ABCA96CC1
:1034C0002FBC8F6C04BC746CDABB596CAFBB3F6C07
:1034D00085BB246C5ABB096C30BBEE6B05BBD36B50
:1034E000DBBAB86BB1BA9C6B87BA816B5CBA666B9E
:1034F00032BA4A6B08BA2F6BDEB9136BB4B9F86AEB
:103500008AB9DC6A60B9C16A36B9A56A0CB9896A38
:10351000E3B86D6AB9B8516A8FB8356A65B8196A87
:103520003CB8FD6912B8E169E9B7C469BFB7A869D9
:1035300096B78C696CB76F6943B7536919B7366929
:10354000F0B61969C7B6FD689EB6E06875B6C3687F
:103550004BB6A66822B68968F9B56C68D0B54F68D5
:10356000A7B532687EB5156856B5F7672DB5DA6729
:1035700004B5BD67DBB49F67B3B482678AB4646780
:1035800061B4466739B4296710B40B67E8B3ED66D8
:10359000C0B3CF6697B3B1666FB3936647B3756632
:1035A0001EB35766F6B23966CEB21A66A6B2FC658D
:1035B0007EB2DD6556B2BF652EB2A06506B28265E9
:1035C000DEB16365B7B145658FB1266567B1076543
:1035D00040B1E86418B1C964F0B0AA64C9B08B64A2
:1035E000A1B06C647AB04D6453B02D642BB00E64FE
:1035F00004B0EF63DDAFCF63B6AFB0638FAF90635E
:1036000068AF716340AF51631AAF3163F3AE1163BA
:10361000CCAEF262A5AED2627EAEB26257AE92621C
:1036200031AE71620AAE5162E3AD3162BDAD11627D
:1036300096ADF16170ADD0614AADB06123AD8F61DF
:10364000FDAC6F61D7AC4E61B1AC2D618AAC0D6140
:1036500064ACEC603EACCB6018ACAA60F2AB8960A5
:10366000CCAB6860A7AB476081AB26605BAB046006
:1036700035ABE35F10ABC25FEAAAA05FC5AA7F5F6C
:103680009FAA5E5F7AAA3C5F54AA1A5F2FAAF95ECE
:103690000AAAD75EE5A9B55EBFA9935E9AA9715E35
:1036A00075A9505E50A92D5E2BA90B5E06A9E95D98
:1036B000E2A8C75DBDA8A55D98A8835D73A8605DFD
:1036C0004FA83E5D2AA81B5D06A8F95CE1A7D65C61
:1036D000BDA7B45C98A7915C74A76E5C50A74B5CC7
:1036E0002BA7295C07A7065CE3A6E35BBFA6C05B2C
:1036F0009BA69D5B77A6795B53A6565B2FA6335B93
:103700000CA6105BE8A5EC5AC4A5C95AA1A5A55AF8
:103710007DA5825A5AA55E5A36A53B5A13A5175A5B
:10372000EFA4F359CCA4D059A9A4AC5986A48859C4
:1037300062A464593FA440591CA41C59F9A3F85829
:10374000D6A3D458B4A3AF5891A38B586EA367588F
:103750004BA3425829A31E5806A3F957E4A2D557F4
:10376000C1A2B0579FA28C577CA267575AA242575A
:1037700038A21D5716A2F956F4A1D456D2A1AF56BD
:10378000AFA18A568EA165566CA140564AA11A5621
:1037900028A1F55506A1D055E5A0AB55C3A0855588
:1037A000A1A0605580A03A555FA015553DA0EF54EB
:1037B0001CA0CA54FB9FA454D99F7E54B89F585450
:1037C000979F3354769F0D54559FE753349FC153B1
:1037D000139F9B53F29E7553D29E4E53B19E285316
:1037E000909E0253709EDC524F9EB5522F9E8F5278
:1037F0000E9E6952EE9D4252CE9D1C52AE9DF551D9
:103800008E9DCE516D9DA8514D9D81512D9D5A513A
:103810000D9D3351EE9C0C51CE9CE550AE9CBF509B
:103820008E9C97506F9C70504F9C4950309C2250FA
:10383000109CFB4FF19BD44FD29BAC4FB29B854F5A
:10384000939B5E4F749B364F559B0F4F369BE74EB5
:10385000179BBF4EF89A984ED99A704EBA9A484E16
:103860009C9A214E7D9AF94D5F9AD14D409AA94D6F
:10387000229A814D039A594DE599314DC699094DCA
:10388000A899E14C8A99B84C6C99904C4E99684C27
:1038900030993F4C1299174CF498EF4BD698C64B81
:1038A000B9989E4B9B98754B7D984C4B6098244BD8
:1038B0004298FB4A2598D24A0898A94AEA97814A31
:1038C000CD97584AB0972F4A9397064A7697DD4985
:1038D0005997B4493C978A491F97614902973849DB
:1038E000E6960F49C996E648AC96BC489096934830
:1038F00073966948579640483B9616481E96ED4782
:103900000296C347E6959A47CA957047AE954647D3
:1039100092951C477695F3465A95C9463E959F4623
:103920002395754607954B46EC942146D094F74570
:10393000B594CD459994A3457E94784563944E45BE
:10394000479424452C94FA441194CF44F693A5440B
:10395000DB937A44C0935044A69325448B93FB4356
:103960007093D0435693A5433B937B43219350439D
:1039700006932543EC92FA42D292D042B792A542E6
:103980009D927A4283924F42699224424F92F9412A
:103990003592CE411C92A24102927741E8914C416E
:1039A000CF912141B591F6409C91CA4082919F40B0
:1039B000699173405091484036911D401D91F13FEF
:1039C0000491C53FEB909A3FD2906E3FB990433F30
:1039D000A090173F8890EB3E6F90BF3E5690933E6D
:1039E0003E90683E25903C3E0D90103EF58FE43DA4
:1039F000DC8FB83DC48F8C3DAC8F603D948F333DE0
:103A00007C8F073D648FDB3C4C8FAF3C348F833C15
:103A10001D8F563C058F2A3CED8EFD3BD68ED13B4B
:103A2000BE8EA53BA78E783B908E4C3B798E1F3B7C
:103A3000618EF23A4A8EC63A338E993A1C8E6C3AAF
:103A4000058E403AEE8D133AD88DE639C18DB939DD
:103A5000AA8D8C39948D5F397D8D3239678D063909
:103A6000508DD8383A8DAB38248D7E380E8D513834
:103A7000F88C2438E28CF737CC8CCA37B68C9C375C
:103A8000A08C6F378A8C4237758C14375F8CE73681
:103A90004A8CBA36348C8C361F8C5F36098C3136A2
:103AA000F48B0436DF8BD635CA8BA835B58B7B35C6
:103AB000A08B4D358B8B1F35768BF234618BC434E4
:103AC0004D8B9634388B6834248B3A340F8B0C34FE
:103AD000FB8ADE33E68AB033D28A8233BE8A54331D
:103AE000AA8A2633968AF832828ACA326E8A9C3231
:103AF0005A8A6E32468A4032338A11321F8AE33143
:103B00000B8AB531F8898631E4895831D1892A3157
:103B1000BE89FB30AB89CD3097899E308489703067
:103B2000718941305F8913304C89E42F3989B52F71
:103B30002689872F1489582F0189292FEF88FB2E7A
:103B4000DC88CC2ECA889D2EB8886E2EA5883F2E84
:103B50009388112E8188E22D6F88B32D5D88842D86
:103B60004B88552D3A88262D2888F72C1688C82C86
:103B70000588982CF387692CE2873A2CD1870B2C87
:103B8000BF87DC2BAE87AD2B9D877D2B8C874E2B83
:103B90007B871F2B6A87EF2A5987C02A4987912A7A
:103BA0003887612A2787322A1787022A0687D3296E
:103BB000F686A329E6867429D5864429C586152963
:103BC000B586E528A586B528958686288586562853
:103BD000758626286686F6275686C727468697273F
:103BE0003786672727863727188607270986D82626
:103BF000FA85A826EA857826DB854826CC8518260E
:103C0000BD85E825AF85B825A085882591855825EF
:103C1000828528257485F7246585C72457859724D0
:103C2000498567243A8537242C8507241E85D623A9
:103C30001085A62302857623F4844523E684152384
:103C4000D984E522CB84B422BD848422B08454225A
:103C5000A28423229584F3218884C2217B8492212B
:103C60006D84612160843121538400214684D020F9
:103C70003A849F202D846E2020843E2014840D20C1
:103C80000784DC1FFA83AC1FEE837B1FE2834A1F8D
:103C9000D683191FC983E91EBD83B81EB183871E51
:103CA000A583561E9983251E8E83F51D8283C41D10
:103CB0007683931D6B83621D5F83311D5483001DCA
:103CC0004883CF1C3D839E1C32836D1C27833C1C84
:103CD0001C830B1C1183DA1B0683A91BFB82781B38
:103CE000F082471BE682161BDB82E41AD082B31AED
:103CF000C682821ABC82511AB182201AA782EF1999
:103D00009D82BD1993828C1989825B197F822A1941
:103D10007582F8186B82C7186282961858826418E8
:103D20004F823318458202183C82D01732829F1787
:103D300029826D1720823C1717820A170E82D91626
:103D40000582A816FC817616F3814516EB811316C1
:103D5000E281E215D981B015D1817F15C8814D1559
:103D6000C0811B15B881EA14B081B814A8818714EA
:103D7000A0815514988123149081F2138881C01377
:103D800080818E1379815D1371812B136A81F91201
:103D90006281C8125B819612548164124C81321286
:103DA000458101123E81CF1137819D1130816B1108
:103DB0002A813911238108111C81D6101681A41083
:103DC0000F8172100981401002810E10FC80DD0FFE
:103DD000F680AB0FF080790FEA80470FE480150F73
:103DE000DE80E30ED880B10ED2807F0ECD804D0EE6
:103DF000C7801B0EC280E90DBC80B70DB780850D52
:103E0000B280530DAC80210DA780EF0CA280BD0CB9
:103E10009D808B0C9880590C9480270C8F80F50B1B
:103E20008A80C30B8680910B81805F0B7D802D0B78
:103E30007880FB0A7480C90A7080970A6C80650AD2
:103E40006880330A6480000A6080CE095C809C0927
:103E500058806A0955803809518006094E80D40877
:103E60004A80A20847806F0843803D0840800B08C5
:103E70003D80D9073A80A70737807507348042070D
:103E8000318010072F80DE062C80AC0629807A0650
:103E900027804706258015062280E3052080B1058E
:103EA0001E807F051C804C051A801A051880E804C6
:103EB0001680B604148083041280510411801F04FC
:103EC0000F80ED030D80BA030C8088030B8056032E
:103ED000098024030880F1020780BF0206808D025A
:103EE00005805B02048028020380F6010380C40180
:103EF0000280920101805F0101802D010080FB00A2
:103F00000080C900008096000080640000803200BC
:103F1000008000000080CDFF00809BFF008069FFD3
:103F2000008036FF008004FF0180D2FE0180A0FEE9
:103F300002806DFE03803BFE038009FE0480D7FDF6
:103F40000580A4FD068072FD078040FD08800EFDFF
:103F50000980DBFC0B80A9FC0C8077FC0D8045FC04
:103F60000F8012FC1180E0FB1280AEFB14807CFB02
:103F7000168049FB188017FB1A80E5FA1C80B3FAFB
:103F80001E8080FA20804EFA22801CFA2580EAF9F1
:103F90002780B8F9298085F92C8053F92F8021F9E1
:103FA0003180EFF83480BDF837808AF83A8058F8CD
:103FB0003D8026F84080F4F74380C2F7478090F7B1
:103FC0004A805DF74E802BF75180F9F65580C7F691
:103FD000588095F65C8063F6608031F66480FFF56A
:103FE0006880CCF56C809AF5708068F5748036F541
:103FF000788004F57D80D2F48180A0F486806EF410
:104000008A803CF48F800AF49480D8F39880A6F3D9
:104010009D8074F3A28042F3A78010F3AC80DEF29F
:10402000B280ACF2B7807AF2BC8048F2C28016F25D
:10403000C780E4F1CD80B2F1D28080F1D8804EF11A
:10404000DE801CF1E480EAF0EA80B8F0F08086F0CF
:10405000F68054F0FC8022F00281F1EF0981BFEF7D
:104060000F818DEF16815BEF1C8129EF2381F7EE25
:104070002A81C6EE308194EE378162EE3E8130EEC9
:104080004581FEED4C81CDED54819BED5B8169ED69
:10409000628137ED6A8106ED7181D4EC7981A2EC01
:1040A000808171EC88813FEC90810DEC9881DCEB94
:1040B000A081AAEBA88178EBB08147EBB88115EB22
:1040C000C081E4EAC881B2EAD18180EAD9814FEAAD
:1040D000E2811DEAEB81ECE9F381BAE9FC8189E92F
:1040E000058257E90E8226E91782F5E82082C3E8A7
:1040F000298292E8328260E83C822FE84582FDE71F
:104100004F82CCE758829BE7628269E76B8238E78F
:10411000758207E77F82D5E68982A4E6938273E6FB
:104120009D8242E6A78210E6B182DFE5BC82AEE561
:10413000C6827DE5D0824CE5DB821BE5E682E9E4C0
:10414000F082B8E4FB8287E4068356E4118325E419
:104150001C83F4E32783C3E3328392E33D8361E36B
:10416000488330E35483FFE25F83CEE26B839DE2BA
:1041700076836CE282833BE28E830AE29983DAE102
:10418000A583A9E1B18378E1BD8347E1C98316E145
:10419000D683E6E0E283B5E0EE8384E0FA8353E081
:1041A000078423E01484F2DF2084C1DF2D8491DFB3
:1041B0003A8460DF46842FDF5384FFDE6084CEDEE6
:1041C0006D849EDE7B846DDE88843DDE95840CDE0E
:1041D000A284DCDDB084ABDDBD847BDDCB844BDD34
:1041E000D9841ADDE684EADCF484BADC028589DC51
:1041F000108559DC1E8529DC2C85F8DB3A85C8DB67
:10420000498598DB578568DB658538DB748508DB75
:104210008285D7DA9185A7DAA08577DAAF8547DA84
:10422000BD8517DACC85E7D9DB85B7D9EA8587D98B
:10423000FA8557D9098627D91886F8D82786C8D885
:10424000378698D8468668D8568638D8668609D87C
:104250007586D9D78586A9D7958679D7A5864AD771
:10426000B5861AD7C586EAD6D586BBD6E6868BD65E
:10427000F6865CD606872CD61787FDD52787CDD541
:1042800038879ED549876ED559873FD56A8710D51F
:104290007B87E0D48C87B1D49D8782D4AE8752D4FB
:1042A000BF8723D4D187F4D3E287C5D3F38796D3CE
:1042B000058867D3168837D3288808D33A88D9D297
:1042C0004B88AAD25D887BD26F884CD281881DD260
:1042D0009388EED1A588C0D1B88891D1CA8862D11F
:1042E000DC8833D1EF8804D10189D6D01489A7D0D6
:1042F000268978D039894AD04C891BD05F89ECCF88
:104300007189BECF84898FCF978961CFAB8932CF36
:10431000BE8904CFD189D5CEE489A7CEF88979CEDC
:104320000B8A4ACE1F8A1CCE338AEECD468ABFCD79
:104330005A8A91CD6E8A63CD828A35CD968A07CD11
:10434000AA8AD9CCBE8AABCCD28A7DCCE68A4FCCA5
:10435000FB8A21CC0F8BF3CB248BC5CB388B97CB2F
:104360004D8B69CB618B3BCB768B0DCB8B8BE0CAB6
:10437000A08BB2CAB58B84CACA8B57CADF8B29CA35
:10438000F48BFBC9098CCEC91F8CA0C9348C73C9AE
:104390004A8C45C95F8C18C9758CEBC88A8CBDC81E
:1043A000A08C90C8B68C63C8CC8C35C8E28C08C889
:1043B000F88CDBC70E8DAEC7248D81C73A8D54C7EC
:1043C000508D27C7678DF9C67D8DCDC6948DA0C64B
:1043D000AA8D73C6C18D46C6D88D19C6EE8DECC5A3
:1043E000058EBFC51C8E93C5338E66C54A8E39C5F2
:1043F000618E0DC5798EE0C4908EB3C4A78E87C43C
:10440000BE8E5AC4D68E2EC4ED8E02C4058FD5C37F
:104410001D8FA9C3348F7CC34C8F50C3648F24C3BA
:104420007C8FF8C2948FCCC2AC8F9FC2C48F73C2F2
:10443000DC8F47C2F58F1BC20D90EFC12590C3C121
:104440003E9097C156906CC16F9040C1889014C146
:10445000A090E8C0B990BCC0D29091C0EB9065C06C
:1044600004913AC01D910EC03691E2BF5091B7BF82
:1044700069918CBF829160BF9C9135BFB59109BF96
:10448000CF91DEBEE891B3BE029288BE1C925DBEA3
:10449000359231BE4F9206BE6992DBBD8392B0BDAC
:1044A0009D9285BDB7925ABDD2922FBDEC9205BDAB
:1044B0000693DABC2193AFBC3B9384BC56935ABCA1
:1044C00070932FBC8B9304BCA693DABBC093AFBB95
:1044D000DB9385BBF6935ABB119430BB2C9405BB80
:1044E0004794DBBA6394B1BA7E9487BA99945CBA64
:1044F000B59432BAD09408BAEC94DEB90795B4B941
:1045000023958AB93E9560B95A9536B976950CB916
:104510009295E3B8AE95B9B8CA958FB8E69565B8E7
:1045200002963CB81E9612B83B96E9B75796BFB7AD
:10453000739696B790966CB7AC9643B7C99619B771
:10454000E696F0B60297C7B61F979EB63C9775B62B
:1045500059974BB6769722B69397F9B5B097D0B5E1
:10456000CD97A7B5EA977EB5089856B525982DB58D
:10457000429804B56098DBB47D98B3B49B988AB434
:10458000B99861B4D69839B4F49810B41299E8B3D4
:104590003099C0B34E9997B36C996FB38A9947B36A
:1045A000A8991EB3C699F6B2E599CEB2039AA6B2FF
:1045B000229A7EB2409A56B25F9A2EB27D9A06B285
:1045C0009C9ADEB1BA9AB7B1D99A8FB1F89A67B10D
:1045D000179B40B1369B18B1559BF0B0749BC9B086
:1045E000939BA1B0B29B7AB0D29B53B0F19B2BB0FE
:1045F000109C04B0309CDDAF4F9CB6AF6F9C8FAF6A
:104600008E9C68AFAE9C40AFCE9C1AAFEE9CF3AED2
:104610000D9DCCAE2D9DA5AE4D9D7EAE6D9D57AE34
:104620008E9D31AEAE9D0AAECE9DE3ADEE9DBDAD8D
:104630000E9E96AD2F9E70AD4F9E4AAD709E23ADDF
:10464000909EFDACB19ED7ACD29EB1ACF29E8AAC2E
:10465000139F64AC349F3EAC559F18AC769FF2AB71
:10466000979FCCABB89FA7ABD99F81ABFB9F5BABB0
:104670001CA035AB3DA010AB5FA0EAAA80A0C5AAE4
:10468000A1A09FAAC3A07AAAE5A054AA06A12FAA16
:1046900028A10AAA4AA1E5A96CA1BFA98EA19AA93D
:1046A000AFA175A9D2A150A9F4A12BA916A206A960
:1046B00038A2E2A85AA2BDA87CA298A89FA273A87B
:1046C000C1A24FA8E4A22AA806A306A829A3E1A78D
:1046D0004BA3BDA76EA398A791A374A7B4A350A79B
:1046E000D6A32BA7F9A307A71CA4E3A63FA4BFA6A4
:1046F00062A49BA686A477A6A9A453A6CCA42FA6A1
:10470000EFA40CA613A5E8A536A5C4A55AA5A1A596
:104710007DA57DA5A1A55AA5C4A536A5E8A513A587
:104720000CA6EFA42FA6CCA453A6A9A477A686A472
:104730009BA662A4BFA63FA4E3A61CA407A7F9A357
:104740002BA7D6A350A7B4A374A791A398A76EA331
:10475000BDA74BA3E1A729A306A806A32AA8E4A204
:104760004FA8C1A273A89FA298A87CA2BDA85AA2D4
:10477000E2A838A206A916A22BA9F4A150A9D2A199
:1047800075A9AFA19AA98EA1BFA96CA1E5A94AA15B
:104790000AAA28A12FAA06A154AAE5A07AAAC3A012
:1047A0009FAAA1A0C5AA80A0EAAA5FA010AB3DA0C5
:1047B00035AB1CA05BABFB9F81ABD99FA7ABB89F70
:1047C000CCAB979FF2AB769F18AC559F3EAC349F15
:1047D00064AC139F8AACF29EB1ACD29ED7ACB19EB2
:1047E000FDAC909E23AD709E4AAD4F9E70AD2F9E46
:1047F00096AD0E9EBDADEE9DE3ADCE9D0AAEAE9DD7
:1048000031AE8E9D57AE6D9D7EAE4D9DA5AE2D9D5C
:10481000CCAE0D9DF3AEEE9C1AAFCE9C40AFAE9CDD
:1048200068AF8E9C8FAF6F9CB6AF4F9CDDAF309C56
:1048300004B0109C2BB0F19B53B0D29B7AB0B29BCA
:10484000A1B0939BC9B0749BF0B0559B18B1369B37
:1048500040B1179B67B1F89A8FB1D99AB7B1BA9A9C
:10486000DEB19C9A06B27D9A2EB25F9A56B2409AF9
:104870007EB2229AA6B2039ACEB2E599F6B2C69952
:104880001EB3A89947B38A996FB36C9997B34E99A1
:10489000C0B33099E8B3129910B4F49839B4D698EB
:1048A00061B4B9988AB49B98B3B47D98DBB460982E
:1048B00004B542982DB5259856B508987EB5EA9767
:1048C000A7B5CD97D0B5B097F9B5939722B676979F
:1048D0004BB6599775B63C979EB61F97C7B60297C9
:1048E000F0B6E69619B7C99643B7AC966CB79096F2
:1048F00096B77396BFB75796E9B73B9612B81E9610
:104900003CB8029665B8E6958FB8CA95B9B8AE9529
:10491000E3B892950CB9769536B95A9560B93E953B
:104920008AB92395B4B90795DEB9EC9408BAD09446
:1049300032BAB5945CBA999487BA7E94B1BA63944A
:10494000DBBA479405BB2C9430BB11945ABBF69349
:1049500085BBDB93AFBBC093DABBA69304BC8B9340
:104960002FBC70935ABC569384BC3B93AFBC21932D
:10497000DABC069305BDEC922FBDD2925ABDB79218
:1049800085BD9D92B0BD8392DBBD699206BE4F92FC
:1049900031BE35925DBE1C9288BE0292B3BEE891D4
:1049A000DEBECF9109BFB59135BF9C9160BF8291AA
:1049B0008CBF6991B7BF5091E2BF36910EC01D9177
:1049C0003AC0049165C0EB9091C0D290BCC0B99040
:1049D000E8C0A09014C1889040C16F906CC15690FF
:1049E00097C13E90C3C12590EFC10D901BC2F58FBA
:1049F00047C2DC8F73C2C48F9FC2AC8FCCC2948F6E
:104A0000F8C27C8F24C3648F50C34C8F7CC3348F17
:104A1000A9C31D8FD5C3058F02C4ED8E2EC4D68EBB
:104A20005AC4BE8E87C4A78EB3C4908EE0C4798E5C
:104A30000DC5618E39C54A8E66C5338E93C51C8EF1
:104A4000BFC5058EECC5EE8D19C6D88D46C6C18D85
:104A500073C6AA8DA0C6948DCDC67D8DF9C6678D0F
:104A600027C7508D54C73A8D81C7248DAEC70E8D90
:104A7000DBC7F88C08C8E28C35C8CC8C63C8B68C10
:104A800090C8A08CBDC88A8CEBC8758C18C95F8C87
:104A900045C94A8C73C9348CA0C91F8CCEC9098CF6
:104AA000FBC9F48B29CADF8B57CACA8B84CAB58B62
:104AB000B2CAA08BE0CA8B8B0DCB768B3BCB618BC4
:104AC00069CB4D8B97CB388BC5CB248BF3CB0F8B1E
:104AD00021CCFB8A4FCCE68A7DCCD28AABCCBE8A75
:104AE000D9CCAA8A07CD968A35CD828A63CD6E8AC3
:104AF00091CD5A8ABFCD468AEECD338A1CCE1F8A0D
:104B00004ACE0B8A79CEF889A7CEE489D5CED18951
:104B100004CFBE8932CFAB8961CF97898FCF84898B
:104B2000BECF7189ECCF5F891BD04C894AD03989BF
:104B300078D02689A7D01489D6D0018904D1EF88EE
:104B400033D1DC8862D1CA8891D1B888C0D1A58818
:104B5000EED193881DD281884CD26F887BD25D883C
:104B6000AAD24B88D9D23A8808D3288837D3168856
:104B700067D3058896D3F387C5D3E287F4D3D1876B
:104B800023D4BF8752D4AE8782D49D87B1D48C877B
:104B9000E0D47B8710D56A873FD559876ED5498782
:104BA0009ED53887CDD52787FDD517872CD6068784
:104BB0005CD6F6868BD6E686BBD6D586EAD6C58683
:104BC0001AD7B5864AD7A58679D79586A9D7858677
:104BD000D9D7758609D8668638D8568668D8468665
:104BE00098D83786C8D82786F8D8188627D909864E
:104BF00057D9FA8587D9EA85B7D9DB85E7D9CC8536
:104C000017DABD8547DAAF8577DAA085A7DA91850F
:104C1000D7DA828508DB748538DB658568DB5785E4
:104C200098DB4985C8DB3A85F8DB2C8529DC1E85B5
:104C300059DC108589DC0285BADCF484EADCE68480
:104C40001ADDD9844BDDCB847BDDBD84ABDDB08444
:104C5000DCDDA2840CDE95843DDE88846DDE7B8401
:104C60009EDE6D84CEDE6084FFDE53842FDF4684BB
:104C700060DF3A8491DF2D84C1DF2084F2DF148469
:104C800023E0078453E0FA8384E0EE83B5E0E28317
:104C9000E6E0D68316E1C98347E1BD8378E1B183BD
:104CA000A9E1A583DAE199830AE28E833BE282835C
:104CB0006CE276839DE26B83CEE25F83FFE25483F6
:104CC00030E3488361E33D8392E33283C3E3278388
:104CD000F4E31C8325E4118356E4068387E4FB8216
:104CE000B8E4F082E9E4E6821BE5DB824CE5D082A1
:104CF0007DE5C682AEE5BC82DFE5B18210E6A78223
:104D000042E69D8273E69382A4E68982D5E67F829D
:104D100007E7758238E76B8269E762829BE7588212
:104D2000CCE74F82FDE745822FE83C8260E8328283
:104D300092E82982C3E82082F5E8178226E90E82EC
:104D400057E9058289E9FC81BAE9F381ECE9EB8155
:104D50001DEAE2814FEAD98180EAD181B2EAC881B5
:104D6000E4EAC08115EBB88147EBB08178EBA8810C
:104D7000AAEBA081DCEB98810DEC90813FEC88815F
:104D800071EC8081A2EC7981D4EC718106ED6A81AD
:104D900037ED628169ED5B819BED5481CDED4C81F6
:104DA000FEED458130EE3E8162EE378194EE30813A
:104DB000C6EE2A81F7EE238129EF1C815BEF168175
:104DC0008DEF0F81BFEF0981F1EF028122F0FC80AE
:104DD00054F0F68086F0F080B8F0EA80EAF0E480E3
:104DE0001CF1DE804EF1D88080F1D280B2F1CD800E
:104DF000E4F1C78016F2C28048F2BC807AF2B78034
:104E0000ACF2B280DEF2AC8010F3A78042F3A28055
:104E100074F39D80A6F39880D8F394800AF48F8071
:104E20003CF48A806EF48680A0F48180D2F47D8088
:104E300004F5788036F5748068F570809AF56C809A
:104E4000CCF56880FFF5648031F6608063F65C80A5
:104E500095F65880C7F65580F9F651802BF74E80AD
:104E60005DF74A8090F74780C2F74380F4F74080AF
:104E700026F83D8058F83A808AF83780BDF83480AB
:104E8000EFF8318021F92F8053F92C8085F92980A2
:104E9000B8F92780EAF925801CFA22804EFA208092
:104EA00080FA1E80B3FA1C80E5FA1A8017FB18807E
:104EB00049FB16807CFB1480AEFB1280E0FB118066
:104EC00012FC0F8045FC0D8077FC0C80A9FC0B8048
:104ED000DBFC09800EFD088040FD078072FD068026
:104EE000A4FD0580D7FD048009FE03803BFE0380FE
:104EF0006DFE0280A0FE0180D2FE018004FF0080D2
:104F000036FF008069FF00809BFF0080CDFF00809E
:104F100000040002000600010005000300078000F5
:104F200080048002800680018005800380074000A5
:104F30004004400240064001400540034007C000D5
:104F4000C004C002C006C001C005C003C0072000E5
:104F50002004200220062001200520032007A000B5
:104F6000A004A002A006A001A005A003A007600065
:104F70006004600260066001600560036007E00095
:104F8000E004E002E006E001E005E003E0071000D5
:104F900010041002100610011005100310079000F5
:104FA00090049002900690019005900390075000A5
:104FB0005004500250065001500550035007D000D5
:104FC000D004D002D006D001D005D003D0073000E5
:104FD0003004300230063001300530033007B000B5
:104FE000B004B002B006B001B005B003B007700065
:104FF0007004700270067001700570037007F00095
:10500000F004F002F006F001F005F003F0070800EC
:1050100008040802080608010805080308078800B4
:105020008804880288068801880588038807480064
:105030004804480248064801480548034807C80094
:10504000C804C802C806C801C805C803C8072800A4
:105050002804280228062801280528032807A80074
:10506000A804A802A806A801A805A803A807680024
:105070006804680268066801680568036807E80054
:10508000E804E802E806E801E805E803E807180094
:1050900018041802180618011805180318079800B4
:1050A0009804980298069801980598039807580064
:1050B0005804580258065801580558035807D80094
:1050C000D804D802D806D801D805D803D8073800A4
:1050D0003804380238063801380538033807B80074
:1050E000B804B802B806B801B805B803B807780024
:1050F0007804780278067801780578037807F80054
:10510000F804F802F806F801F805F803F8070400B7
:1051100004040402040604010405040304078400D3
:105120008404840284068401840584038407440083
:105130004404440244064401440544034407C400B3
:10514000C404C402C406C401C405C403C4072400C3
:105150002404240224062401240524032407A40093
:10516000A404A402A406A401A405A403A407640043
:105170006404640264066401640564036407E40073
:10518000E404E402E406E401E405E403E4071400B3
:1051900014041402140614011405140314079400D3
:1051A0009404940294069401940594039407540083
:1051B0005404540254065401540554035407D400B3
:1051C000D404D402D406D401D405D403D4073400C3
:1051D0003404340234063401340534033407B40093
:1051E000B404B402B406B401B405B403B407740043
:1051F0007404740274067401740574037407F40073
:10520000F404F402F406F401F405F403F4070C00CA
:105210000C040C020C060C010C050C030C078C0092
:105220008C048C028C068C018C058C038C074C0042
:105230004C044C024C064C014C054C034C07CC0072
:10524000CC04CC02CC06CC01CC05CC03CC072C0082
:105250002C042C022C062C012C052C032C07AC0052
:10526000AC04AC02AC06AC01AC05AC03AC076C0002
:105270006C046C026C066C016C056C036C07EC0032
:10528000EC04EC02EC06EC01EC05EC03EC071C0072
:105290001C041C021C061C011C051C031C079C0092
:1052A0009C049C029C069C019C059C039C075C0042
:1052B0005C045C025C065C015C055C035C07DC0072
:1052C000DC04DC02DC06DC01DC05DC03DC073C0082
:1052D0003C043C023C063C013C053C033C07BC0052
:1052E000BC04BC02BC06BC01BC05BC03BC077C0002
:1052F0007C047C027C067C017C057C037C07FC0032
:10530000FC04FC02FC06FC01FC05FC03FC0702009B
:1053100002040202020602010205020302078200E1
:105320008204820282068201820582038207420091
:105330004204420242064201420542034207C200C1
:10534000C204C202C206C201C205C203C2072200D1
:105350002204220222062201220522032207A200A1
:10536000A204A202A206A201A205A203A207620051
:105370006204620262066201620562036207E20081
:10538000E204E202E206E201E205E203E2071200C1
:1053900012041202120612011205120312079200E1
:1053A0009204920292069201920592039207520091
:1053B0005204520252065201520552035207D200C1
:1053C000D204D202D206D201D205D203D2073200D1
:1053D0003204320232063201320532033207B200A1
:1053E000B204B202B206B201B205B203B207720051
:1053F0007204720272067201720572037207F20081
:10540000F204F202F206F201F205F203F2070A00D8
:105410000A040A020A060A010A050A030A078A00A0
:105420008A048A028A068A018A058A038A074A0050
:105430004A044A024A064A014A054A034A07CA0080
:10544000CA04CA02CA06CA01CA05CA03CA072A0090
:105450002A042A022A062A012A052A032A07AA0060
:10546000AA04AA02AA06AA01AA05AA03AA076A0010
:105470006A046A026A066A016A056A036A07EA0040
:10548000EA04EA02EA06EA01EA05EA03EA071A0080
:105490001A041A021A061A011A051A031A079A00A0
:1054A0009A049A029A069A019A059A039A075A0050
:1054B0005A045A025A065A015A055A035A07DA0080
:1054C000DA04DA02DA06DA01DA05DA03DA073A0090
:1054D0003A043A023A063A013A053A033A07BA0060
:1054E000BA04BA02BA06BA01BA05BA03BA077A0010
:1054F0007A047A027A067A017A057A037A07FA0040
:10550000FA04FA02FA06FA01FA05FA03FA070600A3
:1055100006040602060606010605060306078600BF
:10552000860486028606860186058603860746006F
:105530004604460246064601460546034607C6009F
:10554000C604C602C606C601C605C603C6072600AF
:105550002604260226062601260526032607A6007F
:10556000A604A602A606A601A605A603A60766002F
:105570006604660266066601660566036607E6005F
:10558000E604E602E606E601E605E603E60716009F
:1055900016041602160616011605160316079600BF
:1055A000960496029606960196059603960756006F
:1055B0005604560256065601560556035607D6009F
:1055C000D604D602D606D601D605D603D6073600AF
:1055D0003604360236063601360536033607B6007F
:1055E000B604B602B606B601B605B603B60776002F
:1055F0007604760276067601760576037607F6005F
:10560000F604F602F606F601F605F603F6070E00B6
:105610000E040E020E060E010E050E030E078E007E
:105620008E048E028E068E018E058E038E074E002E
:105630004E044E024E064E014E054E034E07CE005E
:10564000CE04CE02CE06CE01CE05CE03CE072E006E
:105650002E042E022E062E012E052E032E07AE003E
:10566000AE04AE02AE06AE01AE05AE03AE076E00EE
:105670006E046E026E066E016E056E036E07EE001E
:10568000EE04EE02EE06EE01EE05EE03EE071E005E
:105690001E041E021E061E011E051E031E079E007E
:1056A0009E049E029E069E019E059E039E075E002E
:1056B0005E045E025E065E015E055E035E07DE005E
:1056C000DE04DE02DE06DE01DE05DE03DE073E006E
:1056D0003E043E023E063E013E053E033E07BE003E
:1056E000BE04BE02BE06BE01BE05BE03BE077E00EE
:1056F0007E047E027E067E017E057E037E07FE001E
:10570000FE04FE02FE06FE01FE05FE03FE0701008A
:045710000000000095
:04571400010F000879
:04571800D90E00089E
:10571C003D0A420A500A670A870AB00AE20A1D0BC0
:10572C00610BAF0B050C640CCC0C3C0DB50D370E9E
:10573C00C20E550FF00F93103F11F311AE127213EE
:10574C003D141015EA15CC16B517A5189B19991A06
:10575C009D1BA81CB91DD01EED1F102138226623DD
:10576C009924D1250E274F289629E02A2E2C812DFD
:10577C00D72E30308D31ED324F34B5351C3786385D
:10578C00F2395F3BCE3C3F3EB03F2241954208444C
:10579C007C45EF466248D449464BB74C274E954F53
:1057AC0002516D52D5533C55A05601585F59BA5A07
:1057BC00125C665DB75E03604B618F62CF630965F7
:1057CC003F666F679A68C069E06AFA6B0E6D1C6E73
:1057DC00236F24701E711272FE72E373C17498757C
:1057EC0067762E77EE77A6785579FD799C7A337BA0
:1057FC00C27B487CC67C3B7DA77D0A7E657EB77EDE
:10580C00FF7E3F7F767FA37FC87FE37FF67FFF7F9E
:10581C00FF7FF67FE37FC87FA37F767F3F7FFF7E8E
:10582C00B77E657E0A7EA77D3B7DC67C487CC27BAD
:10583C00337B9C7AFD795579A678EE772E7767764F
:10584C009875C174E373FE7212721E712470236F0B
:10585C001C6E0E6DFA6BE06AC0699A686F673F66E2
:10586C000965CF638F624B610360B75E665D125C46
:10587C00BA5A5F590158A0563C55D5536D52025136
:10588C00954F274EB74C464BD4496248EF467C4562
:10589C00084495422241B03F3F3ECE3C5F3BF2393B
:1058AC0086381C37B5354F34ED328D313030D72E2C
:1058BC00812D2E2CE02A96294F280E27D1259924AC
:1058CC00662338221021ED1FD01EB91DA81C9D1B6C
:1058DC00991A9B19A518B517CC16EA1510153D1475
:1058EC007213AE12F3113F119310F00F550FC20E3D
:1058FC00370EB50D3C0DCC0C640C050CAF0B610BCD
:10590C001D0BE20AB00A870A670A500A420A3D0ACE
:10591C00440E0020420E0020400E0020010000002A
:04592C00400E002009
:0400000508000F8D53
:00000001FF
